{
  "_format": "hh-sol-artifact-1",
  "contractName": "MetaPlaylist",
  "sourceName": "contracts/MetaPlaylist.sol",
  "abi": [
    {
      "inputs": [],
      "stateMutability": "payable",
      "type": "constructor"
    },
    {
      "anonymous": false,
      "inputs": [
        {
          "indexed": true,
          "internalType": "address",
          "name": "from",
          "type": "address"
        },
        {
          "indexed": false,
          "internalType": "uint256",
          "name": "timestamp",
          "type": "uint256"
        },
        {
          "indexed": false,
          "internalType": "string",
          "name": "uri",
          "type": "string"
        }
      ],
      "name": "NewSong",
      "type": "event"
    },
    {
      "inputs": [
        {
          "internalType": "string",
          "name": "_uri",
          "type": "string"
        }
      ],
      "name": "addSong",
      "outputs": [],
      "stateMutability": "nonpayable",
      "type": "function"
    },
    {
      "inputs": [],
      "name": "getAllSongs",
      "outputs": [
        {
          "components": [
            {
              "internalType": "address",
              "name": "waver",
              "type": "address"
            },
            {
              "internalType": "string",
              "name": "uri",
              "type": "string"
            },
            {
              "internalType": "uint256",
              "name": "timestamp",
              "type": "uint256"
            }
          ],
          "internalType": "struct MetaPlaylist.Song[]",
          "name": "",
          "type": "tuple[]"
        }
      ],
      "stateMutability": "view",
      "type": "function"
    }
  ],
  "bytecode": "0x6080604052606444426200001491906200002c565b62000020919062000093565b60018190555062000129565b6000620000398262000089565b9150620000468362000089565b9250827fffffffffffffffffffffffffffffffffffffffffffffffffffffffffffffffff038211156200007e576200007d620000cb565b5b828201905092915050565b6000819050919050565b6000620000a08262000089565b9150620000ad8362000089565b925082620000c057620000bf620000fa565b5b828206905092915050565b7f4e487b7100000000000000000000000000000000000000000000000000000000600052601160045260246000fd5b7f4e487b7100000000000000000000000000000000000000000000000000000000600052601260045260246000fd5b610d0180620001396000396000f3fe608060405234801561001057600080fd5b50600436106100365760003560e01c806329ef68621461003b5780637f590f5e14610059575b600080fd5b610043610075565b604051610050919061086c565b60405180910390f35b610073600480360381019061006e9190610626565b6101c6565b005b60606002805480602002602001604051908101604052809291908181526020016000905b828210156101bd57838290600052602060002090600302016040518060600160405290816000820160009054906101000a900473ffffffffffffffffffffffffffffffffffffffff1673ffffffffffffffffffffffffffffffffffffffff1673ffffffffffffffffffffffffffffffffffffffff16815260200160018201805461012290610ac9565b80601f016020809104026020016040519081016040528092919081815260200182805461014e90610ac9565b801561019b5780601f106101705761010080835404028352916020019161019b565b820191906000526020600020905b81548152906001019060200180831161017e57829003601f168201915b5050505050815260200160028201548152505081526020019060010190610099565b50505050905090565b600260405180606001604052803373ffffffffffffffffffffffffffffffffffffffff16815260200183815260200142815250908060018154018082558091505060019003906000526020600020906003020160009091909190915060008201518160000160006101000a81548173ffffffffffffffffffffffffffffffffffffffff021916908373ffffffffffffffffffffffffffffffffffffffff160217905550602082015181600101908051906020019061028592919061051b565b50604082015181600201555050606460015442446102a391906109f5565b6102ad91906109f5565b6102b79190610b2c565b600181905550603260015411610403576103066040518060400160405280600781526020017f257320776f6e210000000000000000000000000000000000000000000000000081525033610456565b6000655af3107a4000905047811115610354576040517f08c379a000000000000000000000000000000000000000000000000000000000815260040161034b906108be565b60405180910390fd5b60003373ffffffffffffffffffffffffffffffffffffffff168260405161037a90610857565b60006040518083038185875af1925050503d80600081146103b7576040519150601f19603f3d011682016040523d82523d6000602084013e6103bc565b606091505b5050905080610400576040517f08c379a00000000000000000000000000000000000000000000000000000000081526004016103f7906108de565b60405180910390fd5b50505b3373ffffffffffffffffffffffffffffffffffffffff167f2e96c1f7928a9072fdae4127a395c0b9269f4a7dce78ac1d1ee0c22036af97d9428360405161044b9291906108fe565b60405180910390a250565b6104ee828260405160240161046c92919061088e565b6040516020818303038152906040527f319af333000000000000000000000000000000000000000000000000000000007bffffffffffffffffffffffffffffffffffffffffffffffffffffffff19166020820180517bffffffffffffffffffffffffffffffffffffffffffffffffffffffff83818316178352505050506104f2565b5050565b60008151905060006a636f6e736f6c652e6c6f679050602083016000808483855afa5050505050565b82805461052790610ac9565b90600052602060002090601f0160209004810192826105495760008555610590565b82601f1061056257805160ff1916838001178555610590565b82800160010185558215610590579182015b8281111561058f578251825591602001919060010190610574565b5b50905061059d91906105a1565b5090565b5b808211156105ba5760008160009055506001016105a2565b5090565b60006105d16105cc84610953565b61092e565b9050828152602081018484840111156105e957600080fd5b6105f4848285610a87565b509392505050565b600082601f83011261060d57600080fd5b813561061d8482602086016105be565b91505092915050565b60006020828403121561063857600080fd5b600082013567ffffffffffffffff81111561065257600080fd5b61065e848285016105fc565b91505092915050565b600061067383836107e9565b905092915050565b61068481610a4b565b82525050565b61069381610a4b565b82525050565b60006106a482610994565b6106ae81856109b7565b9350836020820285016106c085610984565b8060005b858110156106fc57848403895281516106dd8582610667565b94506106e8836109aa565b925060208a019950506001810190506106c4565b50829750879550505050505092915050565b60006107198261099f565b61072381856109d3565b9350610733818560208601610a96565b61073c81610c19565b840191505092915050565b60006107528261099f565b61075c81856109e4565b935061076c818560208601610a96565b61077581610c19565b840191505092915050565b600061078d6034836109e4565b915061079882610c2a565b604082019050919050565b60006107b06027836109e4565b91506107bb82610c79565b604082019050919050565b60006107d36000836109c8565b91506107de82610cc8565b600082019050919050565b6000606083016000830151610801600086018261067b565b5060208301518482036020860152610819828261070e565b915050604083015161082e6040860182610839565b508091505092915050565b61084281610a7d565b82525050565b61085181610a7d565b82525050565b6000610862826107c6565b9150819050919050565b600060208201905081810360008301526108868184610699565b905092915050565b600060408201905081810360008301526108a88185610747565b90506108b7602083018461068a565b9392505050565b600060208201905081810360008301526108d781610780565b9050919050565b600060208201905081810360008301526108f7816107a3565b9050919050565b60006040820190506109136000830185610848565b81810360208301526109258184610747565b90509392505050565b6000610938610949565b90506109448282610afb565b919050565b6000604051905090565b600067ffffffffffffffff82111561096e5761096d610bea565b5b61097782610c19565b9050602081019050919050565b6000819050602082019050919050565b600081519050919050565b600081519050919050565b6000602082019050919050565b600082825260208201905092915050565b600081905092915050565b600082825260208201905092915050565b600082825260208201905092915050565b6000610a0082610a7d565b9150610a0b83610a7d565b9250827fffffffffffffffffffffffffffffffffffffffffffffffffffffffffffffffff03821115610a4057610a3f610b5d565b5b828201905092915050565b6000610a5682610a5d565b9050919050565b600073ffffffffffffffffffffffffffffffffffffffff82169050919050565b6000819050919050565b82818337600083830152505050565b60005b83811015610ab4578082015181840152602081019050610a99565b83811115610ac3576000848401525b50505050565b60006002820490506001821680610ae157607f821691505b60208210811415610af557610af4610bbb565b5b50919050565b610b0482610c19565b810181811067ffffffffffffffff82111715610b2357610b22610bea565b5b80604052505050565b6000610b3782610a7d565b9150610b4283610a7d565b925082610b5257610b51610b8c565b5b828206905092915050565b7f4e487b7100000000000000000000000000000000000000000000000000000000600052601160045260246000fd5b7f4e487b7100000000000000000000000000000000000000000000000000000000600052601260045260246000fd5b7f4e487b7100000000000000000000000000000000000000000000000000000000600052602260045260246000fd5b7f4e487b7100000000000000000000000000000000000000000000000000000000600052604160045260246000fd5b6000601f19601f8301169050919050565b7f547279696e6720746f207769746864726177206d6f7265206d6f6e657920746860008201527f616e2074686520636f6e7472616374206861732e000000000000000000000000602082015250565b7f4661696c656420746f207769746864726177206d6f6e65792066726f6d20636f60008201527f6e74726163742e00000000000000000000000000000000000000000000000000602082015250565b5056fea26469706673582212201e53fe6f6813d7eca7ff5bb665619d924c85065f008663d895e1045b1c8043f464736f6c63430008040033",
  "linkReferences": {},
  "deployedLinkReferences": {}
}